:020000040000fa
:080000000002040000000000f2
:020000040000fa
:0400080008030000e9
:020000040000fa
:04000c0008030000e5
:020000040000fa
:0400100008030000e1
:020000040000fa
:0400140008030000dd
:020000040000fa
:0400180008030000d9
:020000040000fa
:04001c0008030000d5
:020000040000fa
:0400200008030000d1
:020000040000fa
:0400240008030000cd
:020000040000fa
:0400280008030000c9
:020000040000fa
:04002c0008030000c5
:020000040000fa
:0400300008030000c1
:020000040000fa
:04003400d8020000ee
:020000040000fa
:0400380008030000b9
:020000040000fa
:04003c0008030000b5
:020000040000fa
:0400400008030000b1
:020000040000fa
:0400440008030000ad
:020000040000fa
:0400480008030000a9
:020000040000fa
:04004c0008030000a5
:020000040000fa
:0400500008030000a1
:020000040000fa
:04005400080300009d
:020000040000fa
:040058000803000099
:020000040000fa
:04005c000803000095
:020000040000fa
:040060000803000091
:020000040000fa
:04006400080300008d
:020000040000fa
:040068000803000089
:020000040000fa
:04006c000803000085
:020000040000fa
:040070000803000081
:020000040000fa
:04007400080300007d
:020000040000fa
:040078000803000079
:020000040000fa
:04007c000803000075
:020000040000fa
:040080000803000071
:020000040000fa
:04008400080300006d
:020000040000fa
:040088000803000069
:020000040000fa
:04008c000803000065
:020000040000fa
:040090000803000061
:020000040000fa
:04009400080300005d
:020000040000fa
:040098000803000059
:020000040000fa
:04009c000803000055
:020000040000fa
:0400a0000803000051
:020000040000fa
:0400a400080300004d
:020000040000fa
:0400a8000803000049
:020000040000fa
:0400ac000803000045
:020000040000fa
:0400b0000803000041
:020000040000fa
:0400b400080300003d
:020000040000fa
:0400b8000803000039
:020000040000fa
:0400bc000803000035
:020000040000fa
:0400c0000803000031
:020000040000fa
:0400c400080300002d
:020000040000fa
:0400c8000803000029
:020000040000fa
:0400cc000803000025
:020000040000fa
:0400d0000803000021
:020000040000fa
:0400d400080300001d
:020000040000fa
:0400d8000803000019
:020000040000fa
:0400dc000803000015
:020000040000fa
:0400e0000803000011
:020000040000fa
:0400e400080300000d
:020000040000fa
:0400e8000803000009
:020000040000fa
:0400ec000803000005
:020000040000fa
:0400f0000803000001
:020000040000fa
:0400f40008030000fd
:020000040000fa
:0400f80008030000f9
:020000040000fa
:0400fc0008030000f5
:020000040000fa
:0401000008030000f0
:020000040000fa
:0401040008030000ec
:020000040000fa
:0401080008030000e8
:020000040000fa
:04010c0008030000e4
:020000040000fa
:0401100008030000e0
:020000040000fa
:0401140008030000dc
:020000040000fa
:0401180008030000d8
:020000040000fa
:04011c0008030000d4
:020000040000fa
:0401200008030000d0
:020000040000fa
:0401240008030000cc
:020000040000fa
:0401280008030000c8
:020000040000fa
:04012c0008030000c4
:020000040000fa
:0401300008030000c0
:020000040000fa
:0401340008030000bc
:020000040000fa
:0402080008030000e7
:020000040000fa
:04020c0008030000e3
:020000040000fa
:0402100008030000df
:020000040000fa
:0402140008030000db
:020000040000fa
:0402180008030000d7
:020000040000fa
:04021c0008030000d3
:020000040000fa
:0402200008030000cf
:020000040000fa
:0402240008030000cb
:020000040000fa
:0402280008030000c7
:020000040000fa
:04022c0008030000c3
:020000040000fa
:0402300008030000bf
:020000040000fa
:04023400d8020000ec
:020000040000fa
:0402380008030000b7
:020000040000fa
:04023c0008030000b3
:020000040000fa
:0402400008030000af
:020000040000fa
:0402440008030000ab
:020000040000fa
:0402480008030000a7
:020000040000fa
:04024c0008030000a3
:020000040000fa
:04025000080300009f
:020000040000fa
:04025400080300009b
:020000040000fa
:040258000803000097
:020000040000fa
:04025c000803000093
:020000040000fa
:04026000080300008f
:020000040000fa
:04026400080300008b
:020000040000fa
:040268000803000087
:020000040000fa
:04026c000803000083
:020000040000fa
:04027000080300007f
:020000040000fa
:04027400080300007b
:020000040000fa
:040278000803000077
:020000040000fa
:04027c000803000073
:020000040000fa
:04028000080300006f
:020000040000fa
:04028400080300006b
:020000040000fa
:040288000803000067
:020000040000fa
:04028c000803000063
:020000040000fa
:04029000080300005f
:020000040000fa
:04029400080300005b
:020000040000fa
:040298000803000057
:020000040000fa
:04029c000803000053
:020000040000fa
:0402a000080300004f
:020000040000fa
:0402a400080300004b
:020000040000fa
:0402a8000803000047
:020000040000fa
:0402ac000803000043
:020000040000fa
:0402b000080300003f
:020000040000fa
:0402b400080300003b
:020000040000fa
:0402b8000803000037
:020000040000fa
:0402bc000803000033
:020000040000fa
:0402c000080300002f
:020000040000fa
:0402c400080300002b
:020000040000fa
:0402c8000803000027
:020000040000fa
:0402cc000803000023
:020000040000fa
:0402d000080300001f
:020000040000fa
:0402d400080300001b
:020000040000fa
:0402d8000803000017
:020000040000fa
:0402dc000803000013
:020000040000fa
:0402e000080300000f
:020000040000fa
:0402e400080300000b
:020000040000fa
:0402e8000803000007
:020000040000fa
:0402ec000803000003
:020000040000fa
:0402f00008030000ff
:020000040000fa
:0402f40008030000fb
:020000040000fa
:0402f80008030000f7
:020000040000fa
:0402fc0008030000f3
:020000040000fa
:0403000008030000ee
:020000040000fa
:0403040008030000ea
:020000040000fa
:0403080008030000e6
:020000040000fa
:04030c0008030000e2
:020000040000fa
:0403100008030000de
:020000040000fa
:0403140008030000da
:020000040000fa
:0403180008030000d6
:020000040000fa
:04031c0008030000d2
:020000040000fa
:0403200008030000ce
:020000040000fa
:0403240008030000ca
:020000040000fa
:0403280008030000c6
:020000040000fa
:04032c0008030000c2
:020000040000fa
:0403300008030000be
:020000040000fa
:0403340008030000ba
:020000040000fa
:10040000afce21000e7f22000e0188000000000008
:10041000000020000000e000020032000001200087
:1004200020028800140007007b0007000000e000a5
:1004300003003a00400322000100200002003700c0
:100440000000200001002000810f70000100320038
:1004500014000700000020000000e000020032004d
:100460000000020000000000002002000000000068
:100470000040da000000fe004440a90020052000f2
:100480000000e0000300320000002000a00188000e
:100490004440a800000006008a1f78008b1f7800e7
:1004a0000000060091018800800478000000eb0045
:1004b0001a003700e284440032a0b4009905ba0063
:1004c000e284440032a0b4009906ba00e2844400f9
:1004d00032a0b4000006eb00476fde00fd07b2005b
:1004e000636ce10003003a00ebff07000000eb0043
:1004f0000a003700606ce10004003a00005deb0088
:100500008b05e900fdff3e00040037006168e10053
:10051000010032000086eb000b00070019c7ba008b
:100520001905ba000e04e00003003a000a00e000da
:10053000e0ff3a0000000600fe07b2009e018800be
:100540008a047800f5ff3700395dba008b05e900b1
:100550000c003200295dba008b05e900080032006a
:100560000c00e00003003a00e284440032a0b40032
:10057000f5ff370019ddba008b05e900faff3a00f4
:100580008904e800e184440032a0b40000000600c1
:10059000081b040000000000a81b0400000000006d
:1005a0006e1c040000000000dc0a040000000000d3
:1005b0003600f800809fbe00829fbe00849fbe0070
:1005c000869fbe003400f80000002000a0018800d3
:1005d0000000fa008460a900830207000000e00028
:1005e00003003200b01f0200000000000000000005
:1005f0000080fa003400f9004f03be004f02be0035
:100600004f01be004f00be003600f900004006005a
:100610000040da000000fe000000050080017800c4
:1006200002003700b15978000201e9000200e00041
:08063000fcff3a000000060087
:020000040000fa
:1006380074610000736b00005f7200006561000068
:10064800645f000062750000747400006f6e000043
:100658007300000063680000656300006b5f0000c2
:10066800776100007368000000630000686500009f
:10067800636b00005f690000726f00006e69000024
:100688006e67000000000000111100002222000027
:1006980033330000444400005555000066660000ee
:1006a800777700008888000099990000aaaa0000be
:1006b800bbbb0000cccc0000dddd0000eeee00008e
:1006c800cecd0000acab0000494400004c45000012
:0406d800000000001e
:020000040000fa
:1006dc001000fa0020079800310798004207980094
:1006ec005307980064079800750798006002200073
:1006fc00e50d0700000f78001e0078000000e000f8
:10070c000e0032004e00900000004000de0d07008d
:10071c00800078001e007800410898001e007800c8
:10072c00400890000000e00004003a001e00780031
:10073c00fa0d07000000eb00000f78001e00780097
:10074c000000e000120032004e0090008000eb0030
:10075c000001eb00821f78009e0378007e0390005e
:10076c00ee0290005e0290000001be00be00900000
:10077c002e0090000b0007008f87e9001e00780008
:10078c006a000700100020001007980002003700d4
:10079c000080eb00100798001e0090000080fa000b
:1007ac00000006001400fa0020079800310798009a
:1007bc004207980053079800640798007507980043
:1007cc00060f9800170f98001e089000c0089000a4
:1007dc00110798001e089000c00890004e01900070
:1007ec00f0ff270000004100000040008080400026
:1007fc001e089000710898003e0090000000e00078
:10080c00190032000000eb00000f78000d003700db
:10081c003e0090001e004000904078001e089000a2
:10082c001e0040007a004000014878003e00900015
:10083c001e004000104078000004e000050032006b
:10084c001e0fe8001e007800e30f5000f0ff36008a
:10085c0001003700000000001e0890008040eb00f3
:10086c0051589800030037001e0890008040eb00a0
:10087c00215898007e009000e30f500002003600d3
:10088c0030002000700798001e089000fe009000b9
:10089c00310898001e0890000080e8006e0c0700dc
:1008ac001e0890006c0040006b0c07001e089000a6
:1008bc009e089000410098007e009000e40010001b
:1008cc001e089000610098001e0890009e08900081
:1008dc00110898001e0990006000b80000119800e3
:1008ec00111198001e0890008040eb0041609800a8
:1008fc006e019000ae0090001e009000d10c07001d
:10090c00800078001e089000010878000e08900006
:10091c000000e000030032000e0890009e089000da
:10092c00010878000080fa00000006000200fa00be
:10093c00000f7800390d0700304080000000e800ff
:10094c0030408800004080000000e00007003a00c2
:10095c009e0078000140880030408000e10f50007c
:10096c000d003a00150307000b00370060408000b3
:10097c000000e00008003a0000408000b008900041
:10098c001e00780030089000808f500002003e005e
:10099c009e00780001408800a04080000000e80024
:1009ac00a04088001e007800b008900050408000e5
:1009bc00808f5000030036001e0078003008900035
:1009cc00504088001e81e8001e007800300890001e
:1009dc006a00b90080007800a0c9210000804000a6
:1009ec0082007800230c0700190d0700604080007e
:1009fc000000e0000900320000408000b0089000c8
:100a0c001e00780030089000808f500003003100e9
:100a1c00b01f020000000000000000000080fa007f
:100a2c00000006000400fa00100798000000eb001c
:100a3c00000f78001e0090000000e000060032005d
:100a4c00ea0007008000eb001e0090000005070084
:100a5c00ec000700000f78001e0078000000e0009a
:100a6c0003003a00b01f020000000000000000006c
:100a7c000080fa00000006000400fa00100798003d
:100a8c00e60c07001e0090000000e00002003a0097
:100a9c0000408000010037001e009000000f78001d
:100aac001e80e800430c07001e0078002008900010
:100abc000000e000030032009e0078006c804000d3
:100acc003c0c07001e80e8008000780000ce21005e
:100adc00e80b07001e00780040609000e14f5000ca
:100aec0003003a001e0078008040eb004160980043
:100afc00d70c0700604080000000e00003003200cb
:100b0c00c60c0700cc020700d10c07000040800087
:100b1c009e007800808f50000e003a0060408000ec
:100b2c000000e00004003200b01f020000000000d2
:100b3c00000000000700370001e780003040800013
:100b4c00808f500002003a000028ef0001003700af
:100b5c00910107000080fa00000006000600fa0070
:100b6c00200798000000eb00000f7800ae0090000a
:100b7c00110798001e009000d000900000ce2100bc
:100b8c00808f50000b003a001e009000a0089000cf
:100b9c0060cd2100808f5000060032001e009000b6
:100bac00200890000000e00002003a001000200035
:100bbc00000f78001e0078000080fa00000006008c
:100bcc000400fa00100798009e009000010f7800b6
:100bdc00004080009e007800808f5000250032007d
:100bec001e0078000000e000220032008b0c070091
:100bfc001e007800d9ff07000000e0001c00320046
:100c0c001e80e800eb0b07001e007800b008900077
:100c1c0050408000808f5000030036001e0078008a
:100c2c0030089000504088001e81e8001e007800bb
:100c3c00300890006a00b90080007800a0c921003b
:100c4c0000804000820078008a0b07001e007800ac
:100c5c00b00890000040800030089000808f500059
:100c6c0003003900b01f020000000000000000006b
:100c7c00770c07000080fa00000006000800fa005c
:100c8c00300798000000eb00000f7800be009000c9
:100c9c00110798000000eb00200798001e00900040
:100cac00aeff07000000e00026003200d0408000bc
:100cbc000000e0001e003a001e009000b0089000fa
:100ccc000040800030089000808f500002003900f6
:100cdc0010002000000f78001e0090000080e8003b
:100cec00b40b07001e009000b0089000504080002c
:100cfc00808f5000030036001e00900030089000da
:100d0c00504088001e0090000081e8001e009000fa
:100d1c00300890006a00b90080007800a0c921005a
:100d2c000080400082007800520b0700050037005d
:100d3c001e0090006c0040008000780060cd210007
:100d4c004c0b07001e0078000080fa000000060023
:100d5c000200fa00858120000002eb008001eb000c
:100d6c003207200081362800c0ad200058fe070055
:100d7c00000f78001e007800e10f50000d003a00c3
:100d8c0011028000f0f12f00008060000050a000e4
:100d9c001002880000000000000000000080eb0042
:100dac00b040880010002000604088000828ef0048
:100dbc00ec0b07000080fa00000006000000fa00af
:100dcc0011028000f0f12f00008060000050a000a4
:100ddc001002880000000000000000000c28ef004a
:100dec00f70b07000080fa00000006000000fa0074
:100dfc00d04080000000e800d04088000080fa005d
:100e0c00000006000600fa000000eb00000f78005e
:100e1c000000eb0010079800000c0700d040800089
:100e2c000000e900d0408800d04080000000e000c5
:100e3c0045003a00304080000000e00042003200e3
:100e4c0021003700e0e6800030009000000f7800b1
:100e5c009e0078006c804000560b07001e80e80056
:100e6c00540b07001e007800b00890005040800022
:100e7c00808f5000030036001e0078003008900070
:100e8c00504088001e81e8001e0078003008900059
:100e9c006a00b90080007800a0c9210000804000e1
:100eac0082007800f30a07001e007800b00890005a
:100ebc000040800030089000808f50000200390004
:100ecc001000200080408800b0e680000000e000a8
:100edc00dcff3a001e0078000000e0000100320048
:100eec00d501070071408000210798002e0090006a
:100efc000000e0000c003200380007000000e000a9
:100f0c000200320010002000804088002e0090006b
:100f1c000000e900200798002e0090000000e0007f
:100f2c00f5ff3a000e28ef00804080000000e00042
:100f3c00050032001000200010079800b01f0200be
:100f4c000000000000000000c10b07001e00900014
:100f5c000080fa00000006000200fa00af0b070048
:100f6c0041408000010f7800b90b07001e0078008b
:100f7c000080fa00000006000400fa000000eb00fc
:100f8c00000f780041408000110798001e0090006f
:100f9c000080fa00000006000000fa0030408000db
:100fac000080fa00000006000400fa001007980008
:100fbc001e0090000000e00002003a00004080009b
:100fcc00010037001e009000000f78009e00780092
:100fdc007a8040000080fa00000006000a00fa0047
:100fec000000eb00000f7800d04080000000e00013
:100ffc005e003a00404080000000e80010079800b6
:10100c009e009000414088001e0090000000e0000f
:10101c000a003a001140800021079800204080000f
:10102c0010408800ae009000214088009040800065
:10103c000000e800904088007f010700b04080006d
:10104c009e009000808f50003c003900010037005a
:10105c000000000010408000100078000000e0004c
:10106c0003003a000080eb00b040880033003700ea
:10107c001040800030009000300090003007980045
:10108c003e00900090009000410798009e00900058
:10109c004e009000808f500003003100ce00900075
:1010ac00b1408800250037003e0090000080e80029
:1010bc00c00a07003e009000200890000000e000ed
:1010cc00030032003e0090006c004000b90a07009b
:1010dc003e009000b008900050408000808f50007f
:1010ec00030036003e00900030089000504088000d
:1010fc003e0090000081e8003e0090003008900017
:10110c006a00b90080007800a0c92100008040006e
:10111c0082007800570a07003e009000b00890004b
:10112c000040800030089000808f5000c8ff3900cc
:10113c0010002000000f7800c6ff37000040800030
:10114c00300890006a00b90080007800a0c9210026
:10115c000080400010007800e10f500006003600bf
:10116c0010002000000f7800030037007040800052
:10117c000000e80070408800804080000000e00023
:10118c000200320010002000000f78001e007800d2
:10119c000080fa00000006000400fa00d040800035
:1011ac000000e000030032001000200080408800a6
:1011bc00290037001028ef0051408000010f780003
:1011cc00010037001e0fe9001e0078006a00b9000c
:1011dc0080007800a0c92100008040001000780039
:1011ec000000e000f7ff32001e0078006a00b90032
:1011fc0080007800a0c921000080400010079800f2
:10120c001e00900010009000900090001e009000b6
:10121c00110098001e009000900090001e0090009d
:10122c0064004000808f500005003a001e009000c2
:10123c0010009000900090001e009000110098008b
:10124c001e009000100090003000900000408800bc
:10125c009e007800514088000080fa0000000600d3
:10126c000400fa00000f780011079800004080007d
:10127c006c004000800078001e0078001b0a0700fc
:10128c00110020001e009000f10207000080fa00ff
:10129c00000006000600fa00000f78001107980005
:1012ac0022079800004080009e00900001f0a000f2
:1012bc0061009800004080006c00400080007800c5
:1012cc001e007800eb090700110020002e00900092
:1012dc00df0207000080fa00000006000600fa009a
:1012ec00200798002e0090003000900030009000f5
:1012fc00100798001e0090006c0040002d0a07009b
:10130c00d04080000000e00016003a001e00900063
:10131c000080e800270a07001e009000b00890002b
:10132c0050408000808f5000030036001e0090005b
:10133c0030089000504088001e0090000081e800aa
:10134c001e009000300890006a00b9008000780000
:10135c00a0c921000080400082007800c509070068
:10136c00050037001e0090006c00400080007800e3
:10137c0060cd2100bf0907001e009000b00890004e
:10138c000040800030089000808f5000050036002f
:10139c0010002000000f7800100020008040880012
:1013ac00020037000000eb00000f78001e007800f0
:1013bc000080fa00000006000600fa0010079800f2
:1013cc00210798002e0090008000780001f0a0000a
:1013dc001e009000010878001e0090003000900064
:1013ec00000f78001e009000f20907001e80e80034
:1013fc00f00907001e007800b008900050408000f3
:10140c00808f5000030036001e00780030089000da
:10141c00504088001e81e8001e00780030089000c3
:10142c006a00b90080007800a0c92100008040004b
:10143c00820078008f0907001e007800b008900029
:10144c000040800030089000808f50000200360071
:10145c0010002000804088000080fa000000060088
:10146c000200fa00000f78006c0a0700914080001f
:10147c001e00780001087800414080001e007800b2
:10148c0011009800720a07000080fa0000000600a4
:10149c000200fa00000f7800914080001e007800d6
:1014ac0001087800414080001e007800110098006f
:1014bc000080fa00000006000a00fa0030079800cd
:1014cc0041079800550a0700414080001107980019
:1014dc003e009000100090009e0090000080500094
:1014ec00200798004e00900010007800e10f40009b
:1014fc0003003a000000eb00000f780022003700d8
:10150c003e0090009000780090408000808f50004a
:10151c00080032003e009000900090001e009000e9
:10152c00808f500003003e0010002000000f780058
:10153c00150037004e009000900078002e009000af
:10154c00808f50000b0036004e0090009000780009
:10155c002e009000808050004e0090000108780012
:10156c003e009000caff07000000eb00000f78005f
:10157c00050037004e0090008000eb000108780059
:10158c0010002000000f7800310a07001e007800c0
:10159c000080fa00000006000000fa001000200095
:1015ac00804088000080fa00000006000200fa006b
:1015bc00000f78001d000700feff37000200fa0044
:1015cc000000eb00000f7800070037001e007800c9
:1015dc006a00b90080007800a0c92100008040009a
:1015ec00040907001e0fe8001e007800e30f5000ee
:1015fc00f6ff360020cc2100fe080700c0cc2100ed
:10160c00fc08070060cd2100fa08070000ce21007d
:10161c00f808070020cc210010408800c0cc210025
:10162c00204088000080fa00000006000000fa004c
:10163c000080fa00000006000200fa001040800052
:10164c00100078000000e00003003a000080eb007e
:10165c00b040880007003700104080003000900038
:10166c0030009000000f78001e00780010009000f1
:10167c00b04088000080fa00000006000200fa006a
:10168c0000408000e0009000010f780000408000d6
:10169c0001408000b1089000e480100061009800c7
:1016ac001e0078000080fa00000006000800fa0016
:1016bc002007980031079800d809070000408000e7
:1016cc009010900000109000e00f5000e08f580038
:1016dc000c003a000040800011c0b300416098003b
:1016ec003e0090000000e0000600320011002000d7
:1016fc003e009000d6010700b01f02000000000061
:10170c0000000000d2090700c40907000040800057
:10171c000011900090119000028fbe001e00be00c0
:10172c00e00f5000e08f58000f0032002e009000a8
:10173c000000e00005003200024080006000b800ac
:10174c00001198001111980007003700024080002a
:10175c000082eb008082eb003e004200ae804a002b
:10176c000011980011119800004080008040eb009f
:10177c0041609800b60907001e00be000080fa0008
:10178c00000006000e00fa001007980021079800d0
:10179c003207980043079800540798006507980093
:1017ac009e0907000040800040609000e24f50000e
:1017bc00220032000440800004119000941190002b
:1017cc001e009000ae0090000080ea008180ea00cc
:1017dc008202780003017800800178000100780013
:1017ec0083826200000061008000eb00c000dd001d
:1017fc00000020000001be006128b800000171004b
:10180c008181710002129800131298000040800030
:10181c0011c0b300416098006e0090000000e00021
:10182c0006003200110020006e00900088010700b5
:10183c00b01f020000000000000000008409070037
:10184c00760907005e0090000000e0000500320001
:10185c000040800090109000001090005e019000fd
:10186c000089be000040800040609000e24f5000b4
:10187c00030032000000eb00000f78001800370066
:10188c000440800004119000941190003e009000e0
:10189c00ce0090000080ea008180ea00820278008d
:1018ac0003017800800178000100780083826200d7
:1018bc00000061008000eb00c000dd000000200093
:1018cc000001be006128b800000171008181710027
:1018dc00021298001312980010002000000f7800dc
:1018ec00004080008040eb004160980058090700e0
:1018fc001e0078000080fa00000006001000fa00bc
:10190c003007980042079800530798006107980029
:10191c007407980010002000000f7800be009000a3
:10192c00110798003d0907007e0090000000e000c0
:10193c00050032001e0090009010900000109000e6
:10194c007e0190000089be001e0090004061900056
:10195c00424798001e00900021c0b30041609800df
:10196c006e009000e20f500017003200e20f5000a2
:10197c0005003e000000e0002e003200e10f500098
:10198c00060032002c003700e30f50001700320025
:10199c00e40f50001b003200270037001e0090009f
:1019ac0000119000901190004e009000de0090000d
:1019bc0000007100818071001e01900000119800e0
:1019cc00111198001c0037001e0090009010900020
:1019dc000010900061004000e08048001e01900063
:1019ec000011980011119800130037001e00900090
:1019fc004e019000de019000021098001310980028
:101a0c000d0037004e409000e24f500006003200af
:101a1c001e0090004e019000de0190000210980014
:101a2c0013109800040037000000eb00000f780042
:101a3c0001003700000000004e409000e14f5000c4
:101a4c001e003a001e0090000080e80059080700b4
:101a5c001e009000b008900050408000808f500015
:101a6c00030036001e0090003008900050408800a3
:101a7c001e0090000081e8001e00900030089000cd
:101a8c006a00b90080007800a0c9210000804000e5
:101a9c0082007800f70707001e009000b008900045
:101aac000040800030089000808f5000030036000a
:101abc00b01f02000000000000000000e408070056
:101acc001e0078000080fa00000006001400fa00e6
:101adc004007980052079800630798007107980018
:101aec00040f9800150f980010002000000f7800cc
:101afc00ce009000110798000000eb002007980022
:101b0c000e0890000000e000050032001e0090005e
:101b1c0090109000001090000e0990000089be00fb
:101b2c001e00900040619000624798001e009000db
:101b3c0021c0b300416098007e009000e20f50007d
:101b4c0017003200e20f500005003e000000e000dc
:101b5c002e003200e10f5000060032002c0037003e
:101b6c00e30f500017003200e40f50001b0032004e
:101b7c00270037001e00900000119000901190007b
:101b8c005e009000ee0090000000710081807100fa
:101b9c001e01900000119800111198001c003700d4
:101bac001e0090009010900000109000610040000a
:101bbc00e08048001e01900000119800111198005f
:101bcc00130037001e0090005e019000ee019000a3
:101bdc0002109800131098000d0037006e40900012
:101bec00e24f5000060032001e0090005e01900093
:101bfc00ee019000021098001310980004003700ba
:101c0c000000eb00000f780001003700000000001e
:101c1c006e409000e14f50002c003a00d040800004
:101c2c000000e00016003a001e0090000080e80062
:101c3c00e00707001e009000b008900050408000a4
:101c4c00808f5000030036001e009000300890007a
:101c5c00504088001e0090000081e8001e0090009b
:101c6c00300890006a00b90080007800a0c92100fb
:101c7c0000804000820078007e07070005003700d6
:101c8c001e0090006c0040008000780060cd2100a8
:101c9c00780707001e009000b008900000408000fc
:101cac0030089000808f5000080036001e0890000d
:101cbc000000e000030032001e089000110020001c
:101ccc000108780010002000804088001e00780079
:101cdc000080fa00000006000a00fa0030079800a5
:101cec0041079800be009000010f78000000eb0047
:101cfc00100798001e007800c060900041479800c3
:101d0c001e00780021c0b300416098001e007800ce
:101d1c00901090000010900061004000e08048009e
:101d2c001e01780000119800111198004e4090008f
:101d3c00e14f50002a003a00d04080000000e00043
:101d4c0014003a001e80e8009a0707001e00780075
:101d5c00b008900050408000808f50000300360087
:101d6c001e00780030089000504088001e81e8006a
:101d7c001e007800300890006a00b90080007800de
:101d8c00a0c92100008040008200780039070700bc
:101d9c00050037009e0078006c80400080007800c1
:101dac0060cd2100330707001e007800b0089000ba
:101dbc000040800030089000808f500008003600f2
:101dcc004e0090000000e000030032004e00900036
:101ddc0011002000010878001000200080408800cd
:101dec000080fa00000006000600fa0020079800a8
:101dfc002e0090000000e00002003a00004080003d
:101e0c00010037002e00900010079800030807000f
:101e1c001e00900040609000e24f500006003a0017
:101e2c001e0090008040eb004160980010002000e4
:101e3c00000f7800020037000000eb00000f780064
:101e4c00030807001e0078000080fa00000006005e
:101e5c000800fa00200798003107980041408000e4
:101e6c00010f7800004080000080e8005107070057
:101e7c002e009000e10f400009003a003e00900057
:101e8c000000e00006003200004080000080e80006
:101e9c008000780000ce2100f606070018003700fd
:101eac002e0090001e00400010079800004080009b
:101ebc009e009000110098001e0090009e0f500094
:101ecc0005003100004080008080e8002040800048
:101edc00060707000a003700004080008080e800f9
:101eec001040800001070700b04080009e00900069
:101efc00808f5000020031009e009000b14088009d
:101f0c000080fa00000006000600fa001007980096
:101f1c00210798009e009000010f7800bf07070072
:101f2c001e007800100178001e007800f008900068
:101f3c001e007800001090000088b90000007800a6
:101f4c00800041001e007800210098001e007800df
:101f5c008000eb00610898001e007800900078006b
:101f6c001e007800110098001e0078001001780007
:101f7c001e007800700890008000e9001e007800b8
:101f8c00001090000088b90000007800800041002b
:101f9c001e007800310098001e00780080c0eb0015
:101fac00216098001e00780080c0eb003160980022
:101fbc002e0090000000e0000d003a001e0078009a
:101fcc00400090000000e0000f0032009e007800fe
:101fdc0068804000c1fc07000000e0000a003200ed
:101fec00b01f0200000000000000000006003700d7
:101ffc009e007800688040007e0607009e007800f6
:10200c00728040007b06070091070700100020003b
:10201c000080fa00000006000c00fa00300798005f
:10202c0041079800224f98004e0090000000e000fd
:10203c0003003a000000eb00000f780005003700a9
:10204c00be0090004e0090000088b900000078009f
:10205c00000f7800410220001e8040008a07070014
:10206c00100798001e0090000000e0000b003200ea
:10207c009e009000210798002e0090004002b000b6
:10208c00200798001e029000ae4990002e0190008f
:10209c00ce0090003e009000030007001e00900050
:1020ac000080fa00000006000a00fa00000f780019
:1020bc00110798002207980063479800440798007e
:1020cc001e0090000000e00004003a00ce009000da
:1020dc004e0090000108780003003700ae0090001d
:1020ec004e009000010878004e0090009e00780091
:1020fc00710898004e0090009e009000011098000e
:10210c00110020004e0090007fff07000080fa00b5
:10211c00000006001200fa005007980061079800b2
:10212c0072079800030f98000000eb00000f780076
:10213c00de0090001107980001003700000000003d
:10214c00360707001e009000e00890001e0090006b
:10215c0070089000808f5000030039000e0890002a
:10216c00e20f50001b003a000e099000ee009000a8
:10217c001e00900086020700200798001e009000a9
:10218c00100890000000e000090032001e009000d2
:10219c007200400051fc07000000e0000a00320011
:1021ac00b01f020000000000000000000600370015
:1021bc002e0090000000e00003003200b01f02006f
:1021cc0000000000000000002107070010002000a4
:1021dc003d0037007e0090000000e00003003a0054
:1021ec001b0707000000eb00370037001e007800cb
:1021fc000000e00004003a0066004700a4fc070061
:10220c0010002000000f780011070700f7fa0700f4
:10221c00020707001e00900020609000e14f400074
:10222c0003003a001e0090008040eb0021609800f3
:10223c001e00900030609000e14f400003003a0017
:10224c001e0090008040eb003160980000070700f2
:10225c00ee0047006600470097fc07000000e00016
:10226c0015003a001e009000160307000000e00065
:10227c000d003200fe0090001e009000680040002f
:10228c00f7fb07001e009000b6020700ddfa0700fe
:10229c000000e000a9ff3a00b01f0200000000009f
:1022ac0000000000a6ff37001e009000ad020700e2
:1022bc00d4fa0700a2ff37001e009000a902070005
:1022cc00d0fa07000000eb000080fa0000000600c6
:1022dc001000fa0040079800510798006207980018
:1022ec0073079800ce009000110798000000eb00d7
:1022fc00200798001e009000e00890001e0090003f
:10230c0070089000808f5000030039007e00900010
:10231c00e20f500022003a001e009000b0609000c6
:10232c00614798007e019000de0090001e00900036
:10233c00170207006e409000e14f400010003a0079
:10234c001e009000100890000000e0001100320008
:10235c001e00900072004000e0fb07000000e0004f
:10236c000c0032006e0090000000e000090032000a
:10237c006e00900011002000010878000500370065
:10238c006e4090000040e800804078001e009000f5
:10239c003160980010002000000f78000200370018
:1023ac000000eb00000f78001e0078000080fa009f
:1023bc00000006000e00fa00500798006107980014
:1023cc00de009000110798000000eb002007980039
:1023dc001e009000e0089000310798001e0090004d
:1023ec00f00890003e009000808f500022003600d4
:1023fc001e009000b0609000014f98003e009000cd
:10240c008000e8001e009000610898000e489000c3
:10241c00e14f400010003a001e00900010089000a0
:10242c000000e000110032001e009000720040001d
:10243c00aafb07000000e0000c0032006e009000c8
:10244c000000e000090032006e0090001100200036
:10245c0001087800050037000e4890000040e800a5
:10246c00804078001e009000316098001000200021
:10247c00000f7800020037000000eb00000f78001e
:10248c001e0078000080fa00000006001000fa0020
:10249c005007980061079800720798000000eb0045
:1024ac00000f7800de009000110798000300370041
:1024bc000000000001003700000000005706070074
:1024cc001e009000e0089000210798002e0090005c
:1024dc000000e00016003200ee0090001e0090009c
:1024ec00fe0107002e0090008000e9001e00900005
:1024fc00610898001e009000400090000000e00071
:10250c00080032001e0090006800400073fb0700ba
:10251c000000e00003003200b01f020000000000c9
:10252c00000000004a0607001000200041003700a0
:10253c007e0090000000e00003003a004406070013
:10254c000000eb003b0037001e0078000000e000ac
:10255c0004003a0066004700cdfb07001000200085
:10256c00000f78003a06070020fa07002b06070038
:10257c001e00900020609000e14f400003003a00e4
:10258c001e0090008040eb00216098001e0090001f
:10259c0030609000e14f400003003a001e009000b4
:1025ac008040eb003160980029060700ee004700e0
:1025bc0066004700c0fb07000000e00015003a0071
:1025cc001e0090001f0207000000e0000d0032000a
:1025dc00fe0090001e0090007200400020fb0700df
:1025ec001e009000df01070006fa07000000e00063
:1025fc00afff3a00b01f0200000000000000000016
:10260c00aeff37001e009000d6010700fdf9070051
:10261c00aaff37001e009000d2010700f9f907004d
:10262c001e009000070207000000e000a2ff32002d
:10263c000000eb000080fa00000006000e00fa001b
:10264c0050079800610798000000eb00000f78001d
:10265c00de00900011079800030037000000000016
:10266c000100370000000000ec0507001e00900080
:10267c00e0089000210798002e0090000000e00078
:10268c00130032002e0090008000e9001e00900024
:10269c00610898001e009000400090000000e000cf
:1026ac00080032001e009000680040000bfb070081
:1026bc000000e00003003200b01f02000000000028
:1026cc0000000000e2050700100020004100370068
:1026dc006e0090000000e00003003a00dc050700eb
:1026ec000000eb003b0037001e0078000000e0000b
:1026fc0004003a006600470065fb0700100020004c
:10270c00000f7800d2050700b8f90700c3050700d1
:10271c001e00900020609000e14f400003003a0042
:10272c001e0090008040eb00216098001e0090007d
:10273c0030609000e14f400003003a001e00900012
:10274c008040eb0031609800c1050700ec004700a9
:10275c006600470058fb07000000e00015003a0037
:10276c001e009000b70107000000e0000d003200d1
:10277c00ee0090001e00900072004000b8fa0700b6
:10278c001e009000770107009ef907000000e00092
:10279c00b2ff3a00b01f0200000000000000000071
:1027ac00b1ff37001e0090006e01070095f907007d
:1027bc00adff37001e0090006a01070091f9070079
:1027cc001e0090009f0107000000e000a5ff3200f2
:1027dc000000eb000080fa00000006001200fa0076
:1027ec006007980071079800020f98000000eb003a
:1027fc00000f7800ee0090001107980003003700de
:10280c0000000000010037000000000083050700f5
:10281c001e009000e0089000210798002e00900008
:10282c000000e000180032001e009000b000900084
:10283c0031079800fe0090001e0090002701070051
:10284c001e009000be009000310098001e00900009
:10285c00100890000000e000080032001e009000fc
:10286c00720040009dfa07000000e00003003200f7
:10287c00b01f0200000000000000000074050700fb
:10288c0010002000410037000e0890000000e0000e
:10289c0003003a006e0507000000eb003b00370018
:1028ac001e0078000000e00004003a0068004700b9
:1028bc00f7fa070010002000000f780064050700ed
:1028cc004af90700550507001e0090002060900093
:1028dc00e14f400003003a001e0090008040eb00e6
:1028ec00216098001e00900030609000e14f400085
:1028fc0003003a001e0090008040eb00316098000d
:10290c0053050700f000470068004700eafa07008b
:10291c000000e00015003a001e009000490107007d
:10292c000000e0000d0032008e0890001e009000a8
:10293c00720040004afa07001e00900009010700cf
:10294c0030f907000000e000adff3a00b01f0200b4
:10295c000000000000000000acff37001e009000db
:10296c000001070027f90700a8ff37001e009000a0
:10297c00fc00070023f907001e009000310107003e
:10298c000000e000a0ff32000000eb000080fa0025
:10299c00000006001000fa0050079800610798002c
:1029ac0072079800de009000110798000000eb0001
:1029bc00200798001e009000e00890003107980056
:1029cc003e0090000000e000250032001e00900048
:1029dc00a0609000014f9800ee0090001e00900047
:1029ec00be0007003e0090008000e9001e00900031
:1029fc00610898000e489000e14f400010003a002a
:102a0c001e009000400090000000e0001100320019
:102a1c001e0090006800400030fa07000000e00043
:102a2c000c0032007e0090000000e0000900320033
:102a3c007e0090001100200001087800050037008e
:102a4c000e4890000040e800804078001e00900086
:102a5c002160980010002000000f78000200370061
:102a6c000000eb00000f78001e0078000080fa00d8
:102a7c00000006000c00fa0040079800510798006f
:102a8c00ce009000110798000000eb002007980082
:102a9c001e009000600890000000e0000c00320066
:102aac001e009000b000900031079800de009000ee
:102abc001e009000890007001e009000be009000d0
:102acc003100980010002000000f78000200370041
:102adc000000eb00000f78001e0078000080fa0068
:102aec00000006000400fa0010079800cb04070051
:102afc001e009000e0089000010f7800d40407003d
:102b0c001e0078000080fa00000006000600fa00a3
:102b1c0020079800ae009000010f7800bf0407005a
:102b2c001e007800f00890001e00780060089000ed
:102b3c000080500010079800c50407001e0090008c
:102b4c000080fa00000006000600fa00200798003a
:102b5c00ae009000010f78001e007800e008900095
:102b6c00110798001e0090000080fa00000006007b
:102b7c000400fa00100798009e009000010f7800e6
:102b8c001e007800e50407000080fa000000060033
:102b9c000a00fa00200798003107980042079800b5
:102bac000000eb00100798002e009000e008900049
:102bbc00010f78002e009000001090000000e00043
:102bcc00400032004e0090000000e00019003a0076
:102bdc002e009000801090002e00900010009000ad
:102bec0001017800be00900089f607002e009000cd
:102bfc00900090002e00900000109000808040000b
:102c0c002e009000110098002e0090009000900073
:102c1c002e00900020009000808f50002900390079
:102c2c002e009000900078002e009000110098006b
:102c3c00240037002e009000801090002e00900091
:102c4c003000900001017800be00900070f6070083
:102c5c002e009000b00090002e009000001090000c
:102c6c000000ea00808040002e00900031009800a7
:102c7c002e009000b00090002e0090001000780004
:102c8c00808f5000080031002e009000a0009000b2
:102c9c002e009000001090000000ea0080804000a0
:102cac002e009000310098004e009000e20f500072
:102cbc0004003a001e0078000000e0000100320021
:102ccc001e0fe9009e00e8002e009000610898009d
:102cdc001e0090000080fa00000006000400fa00bc
:102cec00000f7800110798001e007800001090006b
:102cfc000000e000190032001e007800b0009000c7
:102d0c001e00780000109000808040001e007800ab
:102d1c00310098001e007800b00090001e00780072
:102d2c0020009000808f5000040039001e007800b5
:102d3c00900078001e007800310098001e0078008a
:102d4c00801090001e007800300090000101780087
:102d5c00800078001e0090002df607000080fa001d
:102d6c00000006000400fa00100798002b0407006e
:102d7c001e009000b0609000014f78000b003700ef
:102d8c001e009000100890000000e0000b003200c4
:102d9c001e0090007200400050f907000000e00097
:102dac0001003200fcf907001e4fe9001e407800bc
:102dbc000004e000f2ff3c000100370000000000be
:102dcc001e00900080c0eb003160980020040700ca
:102ddc00120407001e009000a0609000114798009c
:102dec000d0037001e009000400090000000e00035
:102dfc000d0032001e0090006800400037f90700fb
:102e0c000000e00001003200e3f907001e409000d2
:102e1c000040e900104798001e4090000004e000bc
:102e2c00f0ff3c0001003700000000001e00900085
:102e3c0080c0eb0021609800050407000080fa00b8
:102e4c00000006000400fa0010079800f3030700c6
:102e5c001e009000600890000000e00003003a00a3
:102e6c0010002000000f7800020037000000eb007b
:102e7c00000f7800f60307001e0078000080fa00af
:102e8c00000006000600fa0020079800ae00900033
:102e9c00110798001e009000600890000000e000f0
:102eac0003003a0010002000000f780002003700e9
:102ebc000000eb00000f78001e0078000080fa0084
:102ecc00000006000400fa0010079800d303070066
:102edc001e009000e00890001e009000700890000a
:102eec00808f500003003a0010002000000f780083
:102efc00020037000000eb00000f7800d40307003d
:102f0c001e0078000080fa00000006000600fa009f
:102f1c0020079800ae009000110798001e0090004a
:102f2c00e00890001e00900070089000808f500008
:102f3c0003003a0010002000000f78000200370058
:102f4c000000eb00000f78001e0078000080fa00f3
:102f5c00000006000200fa00c0002000ca030700af
:102f6c00000f78001e0078000000e0000500320021
:102f7c001e0078008000eb00010878001e80e8003d
:102f8c009c0207001e0078000080fa00000006007a
:102f9c001200fa0050079800610798007207980019
:102fac00030f9800de009000110798000000eb0062
:102fbc00200798008df707001e0090009000780005
:102fcc0031079800ee0090005e009000de000700d4
:102fdc00be0090006e009000810070007e0090009a
:102fec00808060007e009000808f50000d003a00c1
:102ffc00be0090006e009000008f70001e009000cc
:10300c00900078007e0090000080ea0080806000d4
:10301c001e009000010878000000eb00000f9800e3
:10302c00110037000e0890000000e0000a0032008a
:10303c00fe00900000502000810070001e009000e7
:10304c000080e8000e09900092f807000000eb00e9
:10305c00000f7800040037001e009000100f78005d
:10306c00100020002007980066f707004007980022
:10307c000e0890000000e000200032004e0090008e
:10308c000000e00003003a00b01f02000000000046
:10309c000000000079f90700000f780000202000e4
:1030ac001e0060000000e00012003a005b03070005
:1030bc001e009000100f78007e0090009e006000b3
:1030cc007e009000808f500007003a001e00900098
:1030dc00900078007e0090000080ea008080600004
:1030ec001e00900001087800590307001000200012
:1030fc0020079800f00f20001e0f60001e007800c3
:10310c000080fa00000006001800fa007007980012
:10311c00010f9800120f9800230f9800340f98009d
:10312c00fe009000210798000000eb0010079800ab
:10313c000000eb00300798002cf707002e009000e1
:10314c0090007800410798002e0990008e0890009e
:10315c004e00900008010700500798005e00900098
:10316c000000e0000f003200ce009000010f78004c
:10317c000000eb00300f98001e0890000000e000eb
:10318c00250032002e009000900078000e08900070
:10319c000080ea00808060002e009000010878001a
:1031ac001d0037003e0890000000e00005003a00ca
:1031bc00ce009000010f780010002000300798001e
:1031cc00150037001e0890000000e00003003200dc
:1031dc001e0090000080a000100798002e089000a0
:1031ec000000e000030032001e00900000a0a000d0
:1031fc00100798008e0890001e009000810070004f
:10320c002e0090000080e8003e09900021f8070095
:10321c000000eb00000f7800faf60700600798003a
:10322c003e0890000000e000240032006e00900088
:10323c000000e00003003a00b01f02000000000094
:10324c00000000000df90700000f7800002020009e
:10325c001e0060000000e00016003a00ef020700bc
:10326c002e009000100f78002e0990008e08900010
:10327c001e007800c00007000000e0000a003200c9
:10328c001e0890000000e000070032002e009000a5
:10329c00900078000e0890000080ea0080806000aa
:1032ac002e009000010878001000200030079800d4
:1032bc00e7020700f00f20001e0f60001e007800d0
:1032cc000080fa00000006000800fa0020079800b1
:1032dc0031079800ae009000010f7800cf02070074
:1032ec001e00780090007800110798001e007800ee
:1032fc00900078003e0090000080ea008080600022
:10330c001e00780001087800d10207001e00900012
:10331c000080fa00000006000800fa003007980050
:10332c00be009000010f78000000eb001007980021
:10333c001e00780090007800210798002e00900065
:10334c000080fa00000006001600fa00100f98002a
:10335c00210f98000000eb00100798009e089000c9
:10336c00310798000000eb00200798003e00900009
:10337c000080e800400798004e0090006400400078
:10338c005007980099f607004e009000b00090008e
:10339c00010f78003e009000900078002e089000fd
:1033ac00810070003e009000010878003b0037005f
:1033bc001e00780090009000610798001e007800b5
:1033cc0090007800710798000000eb00200798002f
:1033dc00fe00900000f02f0000806000000f9800ad
:1033ec00fe009000f00f2000008060007007980035
:1033fc008e08900000402000008060000000e0007b
:10340c0009003a003e009000900078007e00900089
:10341c00008060000000e0000c0032001000200072
:10342c0020079800090037003e00900090007800bb
:10343c007e009000808060007e009000808f5000a5
:10344c0002003a0010002000200798002e00900087
:10345c000000e0000f0032008e08900000102000e9
:10346c00008060000000e000040032009e0090002c
:10347c007e00900001007000100798003e00900044
:10348c00100078000090a000800078001e007800ea
:10349c00c9f70700ee009000010f78005e00900065
:1034ac009e007800808f5000c1ff3a003e009000d3
:1034bc00900078001e0090000080ea008080600080
:1034cc003e009000010878004ef607003e00900088
:1034dc00100078000080fa00000006000600fa00d8
:1034ec0020079800ae009000010f78001e80e800c5
:1034fc00100798003df60700040037001e009000ee
:10350c003000900001202000abf707001e00900057
:10351c00100078000000e000f8ff3a001e00780070
:10352c007e02070037f607000080fa000000060054
:10353c000600fa00000f7800120798002307980085
:10354c009e0090001e0078007fff07000080fa00ac
:10355c00000006000600fa00000f78001207980021
:10356c00230798009e0090001e00780056ff07006d
:10357c000080fa00000006000800fa00100798000e
:10358c0021079800320798000000eb00000f78002c
:10359c003e0090000000e00008003a009e00900001
:1035ac002e009000008060000000e0000b00320054
:1035bc0010002000000f7800080037009e009000db
:1035cc002e009000808060002e009000808f5000b4
:1035dc0002003a0010002000000f78001e00780056
:1035ec000080fa00000006000000fa00cc22a800bf
:1035fc00cc42a800cc62a900cc82a9000080fa00c1
:10360c00000006000c00fa00050037000000000066
:10361c00030037000000000001003700000000002c
:10362c0070168000620060000000e00005003a00a7
:10363c0070168000640060000000e00001003a0099
:10364c002828ef0070168000620060000000e00087
:10365c001c003200d0e28000e70f500019003c0043
:10366c00404180000000e00016003a000000eb0032
:10367c00000f780010002000100798000000eb00ed
:10368c0020079800d0e280006600b9008000780026
:10369c00a0c22100008040003e1878002e10780057
:1036ac00ae00900021009800d0e280000000e800fd
:1036bc00d0e288001000200040418800000000008b
:1036cc00d7ff370070168000640060000000e00037
:1036dc00ceff3200d0e28000e70f5000cdff3c005f
:1036ec00404180000000e000ccff3a0010002000b8
:1036fc003007980020002000400798000000eb00e5
:10370c0050079800d0e280006600b9008000780075
:10371c00a0c22100008040003e019000ce0190002c
:10372c000288be00de01900023009800d0e28000e9
:10373c000000e800d0e28800100020004041880022
:10374c00b7ff37000800fa00030037000000000044
:10375c000100370000000000f04080000000e00095
:10376c002c003a00d0e280000000e0002900340078
:10377c0052e1800063e18000120798002307980053
:10378c0073e18000330798000000eb00000f780015
:10379c000f0037009e01e8001e0078006600b9009b
:1037ac0080007800a0c22100008140006618b9009a
:1037bc0080007800a0c22100008040003019780001
:1037cc0020117800a0009000210198001e0fe80045
:1037dc001e007800e60f5000eeff3400d0e28000af
:1037ec000000e900d0e288001e019000ae019000bc
:1037fc00e2e28800f3e28800be01900003e3880057
:10380c0010002000f04088000000eb00300798000a
:10381c0008000700f0408000e10f5000cbff3a0099
:10382c0000e380000000e000caff3a00010007003e
:10383c00c9ff37000000fa00e1408000f070220060
:10384c00808f500005003c00ce62a800e040800054
:10385c000000e800e04088001b003700e1408000d9
:10386c00f0702200808f50000b003400f0e28000da
:10387c00e10f500008003a00ce62a90010002000b1
:10388c0000e388001c28ef0010002000f0408800a6
:10389c002228ef000c003700e1408000f07022007d
:1038ac00808f500008003400f0e28000e10f5000df
:1038bc0005003400ce62a900f0e280000000e900af
:1038cc00f0e288001c28ef000080fa0000000600df
:1038dc000000fa0003003700000000000100370070
:1038ec0000000000f0408000e10f500013003a008f
:1038fc0000e38000e10f500010003a0010418000fe
:10390c000000e0000d003a00e2e28000f3e28000eb
:10391c0012e3880023e3880003e3800033e388008c
:10392c001e28ef00100020001041880010e38000da
:10393c0021e3800032e380000b00070000e38000ed
:10394c00e10f5000e4ff3a0010418000e10f5000fd
:10395c00e3ff3a0010e3800021e3800032e38000b3
:10396c0001000700dfff37000600fa00000f7800a7
:10397c00110798002207980001418000f070220086
:10398c00808f500004003c00ce82a80000418000d3
:10399c000000e8000041880001418000f070220026
:1039ac00808f500011003400ce82a9002228ef0035
:1039bc002028ef002000200000e38800c0e48000f5
:1039cc006600b9008000780080c6210000804000ad
:1039dc003e1878002e107800ae0090002100980060
:1039ec00c0e480000000e800c0e488000080fa0019
:1039fc00000006000200fa00000f78009e0078001c
:103a0c0064804000800078001e007800110098004f
:103a1c001e0078008080eb00210098009e0078004a
:103a2c0064804000800078001e007800310098000f
:103a3c009e00780064804000800078001e007800b2
:103a4c00410098001e0078008000eb00010878000f
:103a5c000080fa00000006000200fa00000f780057
:103a6c001e0078008000eb00410098000080fa00f6
:103a7c00000006000600fa001007980021079800c5
:103a8c001e00900090009000010f78002e00900016
:103a9c009e007800110098001e007800a000900095
:103aac002e009000210098001e007800200090004d
:103abc00ae009000110098001e007800ae0090003f
:103acc00210098002e0090009e009000410098006c
:103adc001e009000100078008000e8001e0090008e
:103aec00010878000080fa00000006000800fa00c7
:103afc0020079800310798003e0090009000780055
:103b0c00110798001e009000e10f400004003a00dd
:103b1c002e009000c0009000010f78000d003700bf
:103b2c002e00900064004000000f78000300370066
:103b3c001e00780090009000010f78001e007800a5
:103b4c0010009000900078001e009000808f5000b4
:103b5c00f7ff36001e007800900090003e009000a9
:103b6c00110098003e00900010009000be009000e4
:103b7c00210098003e0090009e00780021009800e3
:103b8c001e007800be009000110098003e009000ce
:103b9c00ae009000410098002e00900010007800bc
:103bac008000e8002e009000010878000080fa00e8
:103bbc00000006000400fa00100798001e00900098
:103bcc00c0009000010f78001e00900010009000c3
:103bdc009e009000a1009000210098001e00900013
:103bec00200090009e009000910090001100980021
:103bfc001e007800900090001e009000808f5000f6
:103c0c0004003a001e009000a00090001e007800f6
:103c1c00110098001e0090008000eb0041009800fd
:103c2c001e007800100078008000e9001e0078006b
:103c3c00010878001e007800100078000080fa005f
:103c4c00000006002a00fa0020179800311798008f
:103c5c0042179800e4004700823428000f00090046
:103c6c00b2187800be109000110798002e1090002a
:103c7c001e019000020878002e1090000080e800d1
:103c8c00201798002e1090008000eb00010878009f
:103c9c002e1090000080e800201798002e10900045
:103cac008000eb00010878002e1090000080e800e6
:103cbc0020179800ce1090002e109000010878006c
:103ccc002e1090000080e800201798000000eb00f8
:103cdc00000f78000a0037001e007800000040003a
:103cec0000004700a00090002e1090000108780002
:103cfc002e1090000080e800201798001e0fe8009e
:103d0c001e007800ef0f5000f3ff360021028000f8
:103d1c002e109000010878002e1090000080e80012
:103d2c002017980034c0bf008080fb002e1090003c
:103d3c00010878002e1090000080e80020179800f1
:103d4c002e1090008000eb00010878002e109000df
:103d5c000080e800201798002e1090000080fa00d8
:103d6c00000006000000fa00180007000040800068
:103d7c00900778004f007800204188003400f9004b
:103d8c004400f9003200f9003600f9004f077800c2
:103d9c004f06be004f05be004f04be004f03be00d1
:103dac004f02be004f01be004f00be004200f900a2
:103dbc0000000600100020000080fa000000060041
:103dcc000000fa000080fa00000006000400fa006f
:103ddc00f07c200001002000008fbe000421ef00c9
:103dec000021ef001e0078001008880021058000db
:103dfc00f0ff28000080600000c0a00020058800b3
:103e0c008460a9009460a8000481a80004a1a90002
:103e1c0005e1a8000080fa00000006000000fa008e
:103e2c0011028000f0f12f00008060000050a00013
:103e3c0010028800000000000000000020418000fb
:103e4c000000e800204188000080fa000000060015
:103e5c000000fa00204180000000e90020418800a9
:103e6c00204180000000e00005003a0011028000b3
:103e7c00f0f12f00008060001002880000000000ac
:103e8c000080fa00000006000400fa0010079800f9
:103e9c000000eb00000f78001e0090006100600035
:103eac00004078000004e000040032001e00900086
:103ebc000000a1000080e80010079800cbf3070079
:103ecc00314180001e00900080804000f03f2100b6
:103edc00808f50000d003e00314180001e0090008c
:103eec008080400030418000808f500007003600f9
:103efc0031418000a0822000008f400031418000c1
:103f0c001e0090000080400030418800bdf3070087
:103f1c001e0078000080fa00000006000200fa0083
:103f2c00000f78000080fa00000006000000fa0084
:103f3c002628ef000080fa00000006000000fa00be
:103f4c003041800001402100008050000080fa00c8
:103f5c00000006004200f800801f780000022000dc
:103f6c0010028800811f7800829fbe00849fbe00d3
:103f7c00869fbe00889fbe008a9fbe008c9fbe009d
:103f8c008e1f78003600f8003200f8004400f8006c
:103f9c003400f80020418000801f78000040800031
:103fac000f087800d20802000000000000408000da
:103fbc00900778004f007800204188003400f90009
:103fcc004400f9003200f9003600f9004f07780080
:103fdc004f06be004f05be004f04be004f03be008f
:103fec004f02be004f01be004f00be004200f90060
:103ffc00000006000000fa007bfd070080b02100e5
:10400c008002eb00340020008001eb00320720001e
:10401c00c1312800aef1070080ba21008002eb000c
:10402c00340020008001eb0032072000e132280030
:10403c00a7f10700e0c621008002eb00340020004d
:10404c008001eb003207200091332800a0f107001b
:0c405c003ff307000080fa00000006009f
:020000040000fa
:104068002a1c000070000000000000001c0800006e
:104078000800000000000000240800000200000002
:1040880002000000ef0000009a1c00005000000031
:1040980000000000000800001c00000000000000f4
:1040a8002a08000000140000000000002608000094
:1040b80002000000000000002808000002000000c4
:0840c8000000000000000000f0
:00000001FF
